{
  "address": "0x0B663CeaCEF01f2f88EB7451C70Aa069f19dB997",
  "abi": [
    {
      "inputs": [
        {
          "internalType": "contract IEmptySetReserve",
          "name": "reserve",
          "type": "address"
        },
        {
          "internalType": "Token18",
          "name": "dsu",
          "type": "address"
        },
        {
          "internalType": "Token6",
          "name": "usdc",
          "type": "address"
        }
      ],
      "stateMutability": "nonpayable",
      "type": "constructor"
    },
    {
      "inputs": [
        {
          "internalType": "UFixed18",
          "name": "oldBalance",
          "type": "uint256"
        },
        {
          "internalType": "UFixed18",
          "name": "newBalance",
          "type": "uint256"
        }
      ],
      "name": "BatcherBalanceMismatchError",
      "type": "error"
    },
    {
      "inputs": [],
      "name": "BatcherNotImplementedError",
      "type": "error"
    },
    {
      "inputs": [
        {
          "internalType": "address",
          "name": "sender",
          "type": "address"
        }
      ],
      "name": "UOwnableNotOwnerError",
      "type": "error"
    },
    {
      "inputs": [
        {
          "internalType": "address",
          "name": "sender",
          "type": "address"
        }
      ],
      "name": "UOwnableNotPendingOwnerError",
      "type": "error"
    },
    {
      "anonymous": false,
      "inputs": [
        {
          "indexed": false,
          "internalType": "UFixed18",
          "name": "amount",
          "type": "uint256"
        }
      ],
      "name": "Close",
      "type": "event"
    },
    {
      "anonymous": false,
      "inputs": [
        {
          "indexed": true,
          "internalType": "address",
          "name": "newOwner",
          "type": "address"
        }
      ],
      "name": "OwnerUpdated",
      "type": "event"
    },
    {
      "anonymous": false,
      "inputs": [
        {
          "indexed": true,
          "internalType": "address",
          "name": "newPendingOwner",
          "type": "address"
        }
      ],
      "name": "PendingOwnerUpdated",
      "type": "event"
    },
    {
      "anonymous": false,
      "inputs": [
        {
          "indexed": false,
          "internalType": "UFixed18",
          "name": "newMinted",
          "type": "uint256"
        },
        {
          "indexed": false,
          "internalType": "UFixed18",
          "name": "newRedeemed",
          "type": "uint256"
        }
      ],
      "name": "Rebalance",
      "type": "event"
    },
    {
      "anonymous": false,
      "inputs": [
        {
          "indexed": true,
          "internalType": "address",
          "name": "to",
          "type": "address"
        },
        {
          "indexed": false,
          "internalType": "UFixed18",
          "name": "amount",
          "type": "uint256"
        }
      ],
      "name": "Unwrap",
      "type": "event"
    },
    {
      "anonymous": false,
      "inputs": [
        {
          "indexed": true,
          "internalType": "address",
          "name": "to",
          "type": "address"
        },
        {
          "indexed": false,
          "internalType": "UFixed18",
          "name": "amount",
          "type": "uint256"
        }
      ],
      "name": "Wrap",
      "type": "event"
    },
    {
      "inputs": [],
      "name": "DSU",
      "outputs": [
        {
          "internalType": "Token18",
          "name": "",
          "type": "address"
        }
      ],
      "stateMutability": "view",
      "type": "function"
    },
    {
      "inputs": [],
      "name": "RESERVE",
      "outputs": [
        {
          "internalType": "contract IEmptySetReserve",
          "name": "",
          "type": "address"
        }
      ],
      "stateMutability": "view",
      "type": "function"
    },
    {
      "inputs": [],
      "name": "USDC",
      "outputs": [
        {
          "internalType": "Token6",
          "name": "",
          "type": "address"
        }
      ],
      "stateMutability": "view",
      "type": "function"
    },
    {
      "inputs": [],
      "name": "acceptOwner",
      "outputs": [],
      "stateMutability": "nonpayable",
      "type": "function"
    },
    {
      "inputs": [],
      "name": "close",
      "outputs": [],
      "stateMutability": "nonpayable",
      "type": "function"
    },
    {
      "inputs": [],
      "name": "owner",
      "outputs": [
        {
          "internalType": "address",
          "name": "result",
          "type": "address"
        }
      ],
      "stateMutability": "view",
      "type": "function"
    },
    {
      "inputs": [],
      "name": "pendingOwner",
      "outputs": [
        {
          "internalType": "address",
          "name": "result",
          "type": "address"
        }
      ],
      "stateMutability": "view",
      "type": "function"
    },
    {
      "inputs": [],
      "name": "rebalance",
      "outputs": [],
      "stateMutability": "nonpayable",
      "type": "function"
    },
    {
      "inputs": [
        {
          "internalType": "address",
          "name": "newPendingOwner",
          "type": "address"
        }
      ],
      "name": "setPendingOwner",
      "outputs": [],
      "stateMutability": "nonpayable",
      "type": "function"
    },
    {
      "inputs": [],
      "name": "totalBalance",
      "outputs": [
        {
          "internalType": "UFixed18",
          "name": "",
          "type": "uint256"
        }
      ],
      "stateMutability": "view",
      "type": "function"
    },
    {
      "inputs": [
        {
          "internalType": "UFixed18",
          "name": "amount",
          "type": "uint256"
        },
        {
          "internalType": "address",
          "name": "to",
          "type": "address"
        }
      ],
      "name": "unwrap",
      "outputs": [],
      "stateMutability": "nonpayable",
      "type": "function"
    },
    {
      "inputs": [
        {
          "internalType": "UFixed18",
          "name": "amount",
          "type": "uint256"
        },
        {
          "internalType": "address",
          "name": "to",
          "type": "address"
        }
      ],
      "name": "wrap",
      "outputs": [],
      "stateMutability": "nonpayable",
      "type": "function"
    }
  ],
  "transactionHash": "0x9b01b365e56ec4790def94f707c75bc9a645bea23451f9e06a4f432322adbacf",
  "args": [
    "0xD05aCe63789cCb35B9cE71d01e4d632a0486Da4B",
    "0x605D26FBd5be761089281d5cec2Ce86eeA667109",
    "0xA0b86991c6218b36c1d19D4a2e9Eb0cE3606eB48"
  ],
  "solcInputHash": "10866cbcffcc45a85882bb7c07a90f01",
  "bytecode": "0x60e06040523480156200001157600080fd5b5060405162002b9338038062002b9383398181016040528101906200003791906200076b565b8282828273ffffffffffffffffffffffffffffffffffffffff1660808173ffffffffffffffffffffffffffffffffffffffff16815250508173ffffffffffffffffffffffffffffffffffffffff1660a08173ffffffffffffffffffffffffffffffffffffffff16815250508073ffffffffffffffffffffffffffffffffffffffff1660c08173ffffffffffffffffffffffffffffffffffffffff16815250506200010a60805160a05173ffffffffffffffffffffffffffffffffffffffff166200015a60201b62000a771790919060201c565b6200013e60805160c05173ffffffffffffffffffffffffffffffffffffffff16620001b060201b62000ac61790919060201c565b6200014e6200020660201b60201c565b50505050505062000c87565b620001ac817fffffffffffffffffffffffffffffffffffffffffffffffffffffffffffffffff8473ffffffffffffffffffffffffffffffffffffffff166200021960201b62000b15179092919060201c565b5050565b62000202817fffffffffffffffffffffffffffffffffffffffffffffffffffffffffffffffff8473ffffffffffffffffffffffffffffffffffffffff166200021960201b62000b15179092919060201c565b5050565b62000217336200037b60201b60201c565b565b6000811480620002a9575060008373ffffffffffffffffffffffffffffffffffffffff1663dd62ed3e30856040518363ffffffff1660e01b815260040162000263929190620007d8565b602060405180830381865afa15801562000281573d6000803e3d6000fd5b505050506040513d601f19601f82011682018060405250810190620002a7919062000840565b145b620002eb576040517f08c379a0000000000000000000000000000000000000000000000000000000008152600401620002e290620008f9565b60405180910390fd5b620003768363095ea7b360e01b84846040516024016200030d9291906200092c565b604051602081830303815290604052907bffffffffffffffffffffffffffffffffffffffffffffffffffffffff19166020820180517bffffffffffffffffffffffffffffffffffffffffffffffffffffffff8381831617835250505050620003ea60201b60201c565b505050565b60007ffab28ef60f9b87df8726d5dcddc937862ba30f639cf9076b70cb7cba809b881090508181558173ffffffffffffffffffffffffffffffffffffffff167f4ffd725fc4a22075e9ec71c59edf9c38cdeb588a91b24fc5b61388c5be41282b60405160405180910390a25050565b600062000453826040518060400160405280602081526020017f5361666545524332303a206c6f772d6c6576656c2063616c6c206661696c65648152508573ffffffffffffffffffffffffffffffffffffffff16620004be60201b62000c64179092919060201c565b9050600081511115620004b9578080602001905181019062000476919062000996565b620004b8576040517f08c379a0000000000000000000000000000000000000000000000000000000008152600401620004af9062000a3e565b60405180910390fd5b5b505050565b6060620004d58484600085620004de60201b60201c565b90509392505050565b60608247101562000526576040517f08c379a00000000000000000000000000000000000000000000000000000000081526004016200051d9062000ad6565b60405180910390fd5b62000537856200060c60201b60201c565b62000579576040517f08c379a0000000000000000000000000000000000000000000000000000000008152600401620005709062000b48565b60405180910390fd5b6000808673ffffffffffffffffffffffffffffffffffffffff168587604051620005a4919062000bed565b60006040518083038185875af1925050503d8060008114620005e3576040519150601f19603f3d011682016040523d82523d6000602084013e620005e8565b606091505b5091509150620006008282866200061f60201b60201c565b92505050949350505050565b600080823b905060008111915050919050565b60608315620006315782905062000684565b600083511115620006455782518084602001fd5b816040517f08c379a00000000000000000000000000000000000000000000000000000000081526004016200067b919062000c63565b60405180910390fd5b9392505050565b600080fd5b600073ffffffffffffffffffffffffffffffffffffffff82169050919050565b6000620006bd8262000690565b9050919050565b6000620006d182620006b0565b9050919050565b620006e381620006c4565b8114620006ef57600080fd5b50565b6000815190506200070381620006d8565b92915050565b6200071481620006b0565b81146200072057600080fd5b50565b600081519050620007348162000709565b92915050565b6200074581620006b0565b81146200075157600080fd5b50565b60008151905062000765816200073a565b92915050565b6000806000606084860312156200078757620007866200068b565b5b60006200079786828701620006f2565b9350506020620007aa8682870162000723565b9250506040620007bd8682870162000754565b9150509250925092565b620007d281620006b0565b82525050565b6000604082019050620007ef6000830185620007c7565b620007fe6020830184620007c7565b9392505050565b6000819050919050565b6200081a8162000805565b81146200082657600080fd5b50565b6000815190506200083a816200080f565b92915050565b6000602082840312156200085957620008586200068b565b5b6000620008698482850162000829565b91505092915050565b600082825260208201905092915050565b7f5361666545524332303a20617070726f76652066726f6d206e6f6e2d7a65726f60008201527f20746f206e6f6e2d7a65726f20616c6c6f77616e636500000000000000000000602082015250565b6000620008e160368362000872565b9150620008ee8262000883565b604082019050919050565b600060208201905081810360008301526200091481620008d2565b9050919050565b620009268162000805565b82525050565b6000604082019050620009436000830185620007c7565b6200095260208301846200091b565b9392505050565b60008115159050919050565b620009708162000959565b81146200097c57600080fd5b50565b600081519050620009908162000965565b92915050565b600060208284031215620009af57620009ae6200068b565b5b6000620009bf848285016200097f565b91505092915050565b7f5361666545524332303a204552433230206f7065726174696f6e20646964206e60008201527f6f74207375636365656400000000000000000000000000000000000000000000602082015250565b600062000a26602a8362000872565b915062000a3382620009c8565b604082019050919050565b6000602082019050818103600083015262000a598162000a17565b9050919050565b7f416464726573733a20696e73756666696369656e742062616c616e636520666f60008201527f722063616c6c0000000000000000000000000000000000000000000000000000602082015250565b600062000abe60268362000872565b915062000acb8262000a60565b604082019050919050565b6000602082019050818103600083015262000af18162000aaf565b9050919050565b7f416464726573733a2063616c6c20746f206e6f6e2d636f6e7472616374000000600082015250565b600062000b30601d8362000872565b915062000b3d8262000af8565b602082019050919050565b6000602082019050818103600083015262000b638162000b21565b9050919050565b600081519050919050565b600081905092915050565b60005b8381101562000ba057808201518184015260208101905062000b83565b8381111562000bb0576000848401525b50505050565b600062000bc38262000b6a565b62000bcf818562000b75565b935062000be181856020860162000b80565b80840191505092915050565b600062000bfb828462000bb6565b915081905092915050565b600081519050919050565b6000601f19601f8301169050919050565b600062000c2f8262000c06565b62000c3b818562000872565b935062000c4d81856020860162000b80565b62000c588162000c11565b840191505092915050565b6000602082019050818103600083015262000c7f818462000c22565b905092915050565b60805160a05160c051611e6c62000d27600039600081816102b901528181610648015281816106cd01528181610805015281816108a70152610c8501526000818161039501528181610562015281816106870152818161070c0152818161087b015281816108e60152610cd1015260008181610304015281816103d8015281816104910152818161052e015281816108570152610dfc0152611e6c6000f3fe608060405234801561001057600080fd5b50600436106100b45760003560e01c80639d2cc436116100715780639d2cc43614610141578063a2060bcf1461015f578063ad7a672f1461017d578063c42069ec1461019b578063e30c3978146101b7578063ebbc4965146101d5576100b4565b806313bac820146100b957806343d726d6146100d55780637647691d146100df5780637d7c2a1c146100fb57806389a30271146101055780638da5cb5b14610123575b600080fd5b6100d360048036038101906100ce91906115aa565b6101df565b005b6100dd61023b565b005b6100f960048036038101906100f491906115aa565b6105e4565b005b610103610640565b005b61010d610803565b60405161011a9190611649565b60405180910390f35b61012b610827565b6040516101389190611673565b60405180910390f35b610149610855565b60405161015691906116af565b60405180910390f35b610167610879565b60405161017491906116d9565b60405180910390f35b61018561089d565b6040516101929190611725565b60405180910390f35b6101b560048036038101906101b09190611740565b610933565b005b6101bf6109b6565b6040516101cc9190611673565b60405180910390f35b6101dd6109e4565b005b6101e98282610c7c565b8073ffffffffffffffffffffffffffffffffffffffff167fb61d00fdfee32467c7d81db64c811ae60c104c346debf36a14afe84b8fce59e58360405161022f9190611725565b60405180910390a25050565b3373ffffffffffffffffffffffffffffffffffffffff1661025a610827565b73ffffffffffffffffffffffffffffffffffffffff16146102b257336040517f9950d22a0000000000000000000000000000000000000000000000000000000081526004016102a99190611673565b60405180910390fd5b60006102f37f000000000000000000000000000000000000000000000000000000000000000073ffffffffffffffffffffffffffffffffffffffff16610d19565b90506102fe81610d2c565b61038e577f000000000000000000000000000000000000000000000000000000000000000073ffffffffffffffffffffffffffffffffffffffff1663a0712d68826040518263ffffffff1660e01b815260040161035b9190611725565b600060405180830381600087803b15801561037557600080fd5b505af1158015610389573d6000803e3d6000fd5b505050505b60006103cf7f000000000000000000000000000000000000000000000000000000000000000073ffffffffffffffffffffffffffffffffffffffff16610d38565b905060006104767f000000000000000000000000000000000000000000000000000000000000000073ffffffffffffffffffffffffffffffffffffffff16639b6c56ec306040518263ffffffff1660e01b815260040161042f9190611673565b602060405180830381865afa15801561044c573d6000803e3d6000fd5b505050506040513d601f19601f820116820180604052508101906104709190611782565b83610d4b565b9050600061048d8284610d6f90919063ffffffff16565b90507f000000000000000000000000000000000000000000000000000000000000000073ffffffffffffffffffffffffffffffffffffffff166322867d7830846040518363ffffffff1660e01b81526004016104ea9291906117af565b600060405180830381600087803b15801561050457600080fd5b505af1158015610518573d6000803e3d6000fd5b5050505061052581610d2c565b6105a7576105a67f00000000000000000000000000000000000000000000000000000000000000006105608486610d6f90919063ffffffff16565b7f000000000000000000000000000000000000000000000000000000000000000073ffffffffffffffffffffffffffffffffffffffff16610d859092919063ffffffff16565b5b7fbf67515a38ee520223d32c1266d52101c30d936ed1f3e436c8caeb0a43cb06bf836040516105d69190611725565b60405180910390a150505050565b6105ee8282610db5565b8073ffffffffffffffffffffffffffffffffffffffff167f5dd085b6070b4cae004f84daafd199fd55b0bdfa11c3a802baffe89c2419d8c2836040516106349190611725565b60405180910390a25050565b6000806106827f000000000000000000000000000000000000000000000000000000000000000073ffffffffffffffffffffffffffffffffffffffff16610d19565b6106c17f000000000000000000000000000000000000000000000000000000000000000073ffffffffffffffffffffffffffffffffffffffff16610d38565b9150915061074b6107077f000000000000000000000000000000000000000000000000000000000000000073ffffffffffffffffffffffffffffffffffffffff16610d19565b6107467f000000000000000000000000000000000000000000000000000000000000000073ffffffffffffffffffffffffffffffffffffffff16610d38565b610de7565b6000806107618385610e8a90919063ffffffff16565b61076961089d565b915091506107808183610ea090919063ffffffff16565b6107c35781816040517fa4840ff90000000000000000000000000000000000000000000000000000000081526004016107ba9291906117d8565b60405180910390fd5b7f0b33d39bbef101ecc4f5ef04e6d3a125c9fb745a418dac380e2a9460f8200dc88460006040516107f59291906117d8565b60405180910390a150505050565b7f000000000000000000000000000000000000000000000000000000000000000081565b6000807ffab28ef60f9b87df8726d5dcddc937862ba30f639cf9076b70cb7cba809b88109050805491505090565b7f000000000000000000000000000000000000000000000000000000000000000081565b7f000000000000000000000000000000000000000000000000000000000000000081565b600061092e6108e17f000000000000000000000000000000000000000000000000000000000000000073ffffffffffffffffffffffffffffffffffffffff16610d19565b6109207f000000000000000000000000000000000000000000000000000000000000000073ffffffffffffffffffffffffffffffffffffffff16610d38565b610e8a90919063ffffffff16565b905090565b3373ffffffffffffffffffffffffffffffffffffffff16610952610827565b73ffffffffffffffffffffffffffffffffffffffff16146109aa57336040517f9950d22a0000000000000000000000000000000000000000000000000000000081526004016109a19190611673565b60405180910390fd5b6109b381610eb7565b50565b6000807fc028c3f1b00d28351bc84514ae30540c184f004e4f245715fcb6d3c5890740269050805491505090565b6109ec6109b6565b73ffffffffffffffffffffffffffffffffffffffff163373ffffffffffffffffffffffffffffffffffffffff1614610a5b57336040517f14f8fce7000000000000000000000000000000000000000000000000000000008152600401610a529190611673565b60405180910390fd5b610a6b610a666109b6565b610f26565b610a756000610eb7565b565b610ac2817fffffffffffffffffffffffffffffffffffffffffffffffffffffffffffffffff8473ffffffffffffffffffffffffffffffffffffffff16610b159092919063ffffffff16565b5050565b610b11817fffffffffffffffffffffffffffffffffffffffffffffffffffffffffffffffff8473ffffffffffffffffffffffffffffffffffffffff16610b159092919063ffffffff16565b5050565b6000811480610b9f575060008373ffffffffffffffffffffffffffffffffffffffff1663dd62ed3e30856040518363ffffffff1660e01b8152600401610b5c929190611801565b602060405180830381865afa158015610b79573d6000803e3d6000fd5b505050506040513d601f19601f82011682018060405250810190610b9d9190611856565b145b610bde576040517f08c379a0000000000000000000000000000000000000000000000000000000008152600401610bd590611906565b60405180910390fd5b610c5f8363095ea7b360e01b8484604051602401610bfd929190611935565b604051602081830303815290604052907bffffffffffffffffffffffffffffffffffffffffffffffffffffffff19166020820180517bffffffffffffffffffffffffffffffffffffffffffffffffffffffff8381831617835250505050610f95565b505050565b6060610c73848460008561105c565b90509392505050565b610cca338360017f000000000000000000000000000000000000000000000000000000000000000073ffffffffffffffffffffffffffffffffffffffff16611170909392919063ffffffff16565b610d1581837f000000000000000000000000000000000000000000000000000000000000000073ffffffffffffffffffffffffffffffffffffffff16610d859092919063ffffffff16565b5050565b6000610d2582306111ac565b9050919050565b60008082149050919050565b6000610d448230611238565b9050919050565b6000806000848491509150808210610d635780610d65565b815b9250505092915050565b60008183610d7d919061198d565b905092915050565b610db082828573ffffffffffffffffffffffffffffffffffffffff166112bc9092919063ffffffff16565b505050565b6040517f446be2a900000000000000000000000000000000000000000000000000000000815260040160405180910390fd5b610df082610d2c565b15610dfa57610e86565b7f000000000000000000000000000000000000000000000000000000000000000073ffffffffffffffffffffffffffffffffffffffff1663a0712d68836040518263ffffffff1660e01b8152600401610e539190611725565b600060405180830381600087803b158015610e6d57600080fd5b505af1158015610e81573d6000803e3d6000fd5b505050505b5050565b60008183610e9891906119c1565b905092915050565b60006001610eae8484611342565b14905092915050565b60007fc028c3f1b00d28351bc84514ae30540c184f004e4f245715fcb6d3c58907402690508181558173ffffffffffffffffffffffffffffffffffffffff167f69f201bc2089b9be6195d876d97a0136b4cf56bbf8986a52dcb50697f7d1cac560405160405180910390a25050565b60007ffab28ef60f9b87df8726d5dcddc937862ba30f639cf9076b70cb7cba809b881090508181558173ffffffffffffffffffffffffffffffffffffffff167f4ffd725fc4a22075e9ec71c59edf9c38cdeb588a91b24fc5b61388c5be41282b60405160405180910390a25050565b6000610ff7826040518060400160405280602081526020017f5361666545524332303a206c6f772d6c6576656c2063616c6c206661696c65648152508573ffffffffffffffffffffffffffffffffffffffff16610c649092919063ffffffff16565b905060008151111561105757808060200190518101906110179190611a4f565b611056576040517f08c379a000000000000000000000000000000000000000000000000000000000815260040161104d90611aee565b60405180910390fd5b5b505050565b6060824710156110a1576040517f08c379a000000000000000000000000000000000000000000000000000000000815260040161109890611b80565b60405180910390fd5b6110aa85611380565b6110e9576040517f08c379a00000000000000000000000000000000000000000000000000000000081526004016110e090611bec565b60405180910390fd5b6000808673ffffffffffffffffffffffffffffffffffffffff1685876040516111129190611c86565b60006040518083038185875af1925050503d806000811461114f576040519150601f19603f3d011682016040523d82523d6000602084013e611154565b606091505b5091509150611164828286611393565b92505050949350505050565b6111a6833061117f85856113fa565b8773ffffffffffffffffffffffffffffffffffffffff1661142f909392919063ffffffff16565b50505050565b60006112308373ffffffffffffffffffffffffffffffffffffffff166370a08231846040518263ffffffff1660e01b81526004016111ea9190611673565b602060405180830381865afa158015611207573d6000803e3d6000fd5b505050506040513d601f19601f8201168201806040525081019061122b9190611856565b6114b8565b905092915050565b60008273ffffffffffffffffffffffffffffffffffffffff166370a08231836040518263ffffffff1660e01b81526004016112739190611673565b602060405180830381865afa158015611290573d6000803e3d6000fd5b505050506040513d601f19601f820116820180604052508101906112b49190611856565b905092915050565b61133d8363a9059cbb60e01b84846040516024016112db929190611935565b604051602081830303815290604052907bffffffffffffffffffffffffffffffffffffffffffffffffffffffff19166020820180517bffffffffffffffffffffffffffffffffffffffffffffffffffffffff8381831617835250505050610f95565b505050565b6000806000848491509150808211156113605760029250505061137a565b808210156113735760009250505061137a565b6001925050505b92915050565b600080823b905060008111915050919050565b606083156113a3578290506113f3565b6000835111156113b65782518084602001fd5b816040517f08c379a00000000000000000000000000000000000000000000000000000000081526004016113ea9190611cf2565b60405180910390fd5b9392505050565b6000816114175764e8d4a51000836114129190611d43565b611427565b6114268364e8d4a510006114d2565b5b905092915050565b6114b2846323b872dd60e01b85858560405160240161145093929190611d74565b604051602081830303815290604052907bffffffffffffffffffffffffffffffffffffffffffffffffffffffff19166020820180517bffffffffffffffffffffffffffffffffffffffffffffffffffffffff8381831617835250505050610f95565b50505050565b600064e8d4a51000826114cb9190611dab565b9050919050565b60008082846114e19190611e05565b146114ed5760016114f0565b60005b60ff1682846114ff9190611d43565b61150991906119c1565b905092915050565b600080fd5b6000819050919050565b61152981611516565b811461153457600080fd5b50565b60008135905061154681611520565b92915050565b600073ffffffffffffffffffffffffffffffffffffffff82169050919050565b60006115778261154c565b9050919050565b6115878161156c565b811461159257600080fd5b50565b6000813590506115a48161157e565b92915050565b600080604083850312156115c1576115c0611511565b5b60006115cf85828601611537565b92505060206115e085828601611595565b9150509250929050565b6000819050919050565b600061160f61160a6116058461154c565b6115ea565b61154c565b9050919050565b6000611621826115f4565b9050919050565b600061163382611616565b9050919050565b61164381611628565b82525050565b600060208201905061165e600083018461163a565b92915050565b61166d8161156c565b82525050565b60006020820190506116886000830184611664565b92915050565b600061169982611616565b9050919050565b6116a98161168e565b82525050565b60006020820190506116c460008301846116a0565b92915050565b6116d381611628565b82525050565b60006020820190506116ee60008301846116ca565b92915050565b600061170f61170a61170584611516565b6115ea565b611516565b9050919050565b61171f816116f4565b82525050565b600060208201905061173a6000830184611716565b92915050565b60006020828403121561175657611755611511565b5b600061176484828501611595565b91505092915050565b60008151905061177c81611520565b92915050565b60006020828403121561179857611797611511565b5b60006117a68482850161176d565b91505092915050565b60006040820190506117c46000830185611664565b6117d16020830184611716565b9392505050565b60006040820190506117ed6000830185611716565b6117fa6020830184611716565b9392505050565b60006040820190506118166000830185611664565b6118236020830184611664565b9392505050565b61183381611516565b811461183e57600080fd5b50565b6000815190506118508161182a565b92915050565b60006020828403121561186c5761186b611511565b5b600061187a84828501611841565b91505092915050565b600082825260208201905092915050565b7f5361666545524332303a20617070726f76652066726f6d206e6f6e2d7a65726f60008201527f20746f206e6f6e2d7a65726f20616c6c6f77616e636500000000000000000000602082015250565b60006118f0603683611883565b91506118fb82611894565b604082019050919050565b6000602082019050818103600083015261191f816118e3565b9050919050565b61192f81611516565b82525050565b600060408201905061194a6000830185611664565b6119576020830184611926565b9392505050565b7f4e487b7100000000000000000000000000000000000000000000000000000000600052601160045260246000fd5b600061199882611516565b91506119a383611516565b9250828210156119b6576119b561195e565b5b828203905092915050565b60006119cc82611516565b91506119d783611516565b9250827fffffffffffffffffffffffffffffffffffffffffffffffffffffffffffffffff03821115611a0c57611a0b61195e565b5b828201905092915050565b60008115159050919050565b611a2c81611a17565b8114611a3757600080fd5b50565b600081519050611a4981611a23565b92915050565b600060208284031215611a6557611a64611511565b5b6000611a7384828501611a3a565b91505092915050565b7f5361666545524332303a204552433230206f7065726174696f6e20646964206e60008201527f6f74207375636365656400000000000000000000000000000000000000000000602082015250565b6000611ad8602a83611883565b9150611ae382611a7c565b604082019050919050565b60006020820190508181036000830152611b0781611acb565b9050919050565b7f416464726573733a20696e73756666696369656e742062616c616e636520666f60008201527f722063616c6c0000000000000000000000000000000000000000000000000000602082015250565b6000611b6a602683611883565b9150611b7582611b0e565b604082019050919050565b60006020820190508181036000830152611b9981611b5d565b9050919050565b7f416464726573733a2063616c6c20746f206e6f6e2d636f6e7472616374000000600082015250565b6000611bd6601d83611883565b9150611be182611ba0565b602082019050919050565b60006020820190508181036000830152611c0581611bc9565b9050919050565b600081519050919050565b600081905092915050565b60005b83811015611c40578082015181840152602081019050611c25565b83811115611c4f576000848401525b50505050565b6000611c6082611c0c565b611c6a8185611c17565b9350611c7a818560208601611c22565b80840191505092915050565b6000611c928284611c55565b915081905092915050565b600081519050919050565b6000601f19601f8301169050919050565b6000611cc482611c9d565b611cce8185611883565b9350611cde818560208601611c22565b611ce781611ca8565b840191505092915050565b60006020820190508181036000830152611d0c8184611cb9565b905092915050565b7f4e487b7100000000000000000000000000000000000000000000000000000000600052601260045260246000fd5b6000611d4e82611516565b9150611d5983611516565b925082611d6957611d68611d14565b5b828204905092915050565b6000606082019050611d896000830186611664565b611d966020830185611664565b611da36040830184611926565b949350505050565b6000611db682611516565b9150611dc183611516565b9250817fffffffffffffffffffffffffffffffffffffffffffffffffffffffffffffffff0483118215151615611dfa57611df961195e565b5b828202905092915050565b6000611e1082611516565b9150611e1b83611516565b925082611e2b57611e2a611d14565b5b82820690509291505056fea2646970667358221220ae9e7586096ef49a0e0df22eba9b4df80ac0cf2e79497937c70a8235023e297f64736f6c634300080b0033",
  "devdoc": {
    "kind": "dev",
    "methods": {
      "acceptOwner()": {
        "details": "Can only be called by the pending owner to ensure correctness"
      },
      "owner()": {
        "returns": {
          "result": "Current owner"
        }
      },
      "pendingOwner()": {
        "returns": {
          "result": "Pending owner"
        }
      },
      "setPendingOwner(address)": {
        "details": "Can only be called by the current owner      New owner does not take affect until that address calls `acceptOwner()`",
        "params": {
          "newPendingOwner": "New pending owner address"
        }
      }
    },
    "version": 1
  },
  "userdoc": {
    "kind": "user",
    "methods": {
      "acceptOwner()": {
        "notice": "Accepts and transfers the ownership of the contract to the pending owner"
      },
      "owner()": {
        "notice": "Returns the address of the current owner"
      },
      "pendingOwner()": {
        "notice": "Returns the address of the pending owner"
      },
      "setPendingOwner(address)": {
        "notice": "Sets a new pending owner"
      }
    },
    "version": 1
  },
  "storageLayout": {
    "storage": [],
    "types": null
  }
}